:1000080032090100320901003209010032090100F8
:1000180032090100320901003209010032090100E8
:100028003209010032090100320901003C0B0100CC
:100038008208010032090100320901003209010079
:100048003209010032090100320901008A02010067
:10005800220301003209010096080100320901005B
:100068003209010032090100320901003209010098
:100078003209010032090100320901003209010088
:100088003209010032090100320901003209010078
:100098003209010032090100840301001C04010037
:1000A8003209010032090100D007010000080100EF
:1000B8003209010032090100320901003209010048
:1000C8003209010032090100320901003209010038
:1000D8003209010032090100320901003209010028
:1000E8003209010032090100320901003209010018
:1000F8003209010032090100320901003209010008
:1001080032090100320901003209010032090100F7
:1001180032090100320901003209010032090100E7
:1001280032090100320901003209010032090100D7
:100138003209010032090100E80701003209010013
:1001480032090100320901003209010032090100B7
:1001580032090100320901003209010032090100A7
:100168003209010032090100320901003209010097
:100178003209010032090100320901003209010087
:100188003209010032090100320901003209010077
:100198003209010032090100320901003209010067
:1001A8003209010032090100320901003209010057
:1001B8003209010032090100320901003209010047
:1001C8003209010032090100320901003209010037
:1001D8003209010032090100320901003209010027
:1001E8003209010032090100320901003209010017
:0801F800320901003209010087
:1002080032090100320901003209010032090100F6
:1002180032090100320901003209010032090100E6
:100228003209010032090100320901003C0B0100CA
:100238008208010032090100320901003209010077
:100248003209010032090100320901008A02010065
:100258002203010032090100960801003209010059
:100268003209010032090100320901003209010096
:100278003209010032090100320901003209010086
:100288003209010032090100320901003209010076
:100298003209010032090100840301001C04010035
:1002A8003209010032090100D007010000080100ED
:1002B8003209010032090100320901003209010046
:1002C8003209010032090100320901003209010036
:1002D8003209010032090100320901003209010026
:1002E8003209010032090100320901003209010016
:1002F8003209010032090100320901003209010006
:1003080032090100320901003209010032090100F5
:1003180032090100320901003209010032090100E5
:1003280032090100320901003209010032090100D5
:100338003209010032090100E80701003209010011
:1003480032090100320901003209010032090100B5
:1003580032090100320901003209010032090100A5
:100368003209010032090100320901003209010095
:100378003209010032090100320901003209010085
:100388003209010032090100320901003209010075
:100398003209010032090100320901003209010065
:1003A8003209010032090100320901003209010055
:1003B8003209010032090100320901003209010045
:1003C8003209010032090100320901003209010035
:1003D8003209010032090100320901003209010025
:1003E8003209010032090100320901003209010015
:0803F800320901003209010085
:020000040001F9
:08180000008E0400000000004E
:101C00000FAC21000E5F24000E01880000000000D0
:101C1000000020000000E00002003200000120006F
:101C20002002880014000700F10007000000E00017
:101C300003003A00609620001100200002003700E7
:101C40000000200001002000810F70000100320020
:101C500014000700000020000000E0000200320035
:101C600000000200000000009000020001000000DF
:101C70000040DA000000FE004440A900802020005F
:101C80000000E0000300320010002000A0018800E6
:101C90004440A800000006008A1F78008B1F7800CF
:101CA0000000060091018800800478000000EB002D
:101CB0001A003700E284440032A0B4009905BA004B
:101CC000E284440032A0B4009906BA00E2844400E1
:101CD00032A0B4000006EB00476FDE00FD07B20043
:101CE000636CE10003003A00EBFF07000000EB002B
:101CF0000A003700606CE10004003A00005DEB0070
:101D00008B05E900FDFF3E00040037006168E1003B
:101D1000010032000086EB000B00070019C7BA0073
:101D20001905BA000E04E00003003A000A00E000C2
:101D3000E0FF3A0000000600FE07B2009E018800A6
:101D40008A047800F5FF3700395DBA008B05E90099
:101D50000C003200295DBA008B05E9000800320052
:101D60000C00E00003003A00E284440032A0B4001A
:101D7000F5FF370019DDBA008B05E900FAFF3A00DC
:101D80008904E800E184440032A0B40000000600A9
:101D900014E3040000000000A2B4040000000000EE
:101DA0003EF0040000000000CEF20400000000003D
:101DB000E4F10400000000002CE504000000000035
:101DC000D401040001000000F49A040000000000A7
:101DD0005A9C040000000000FE9B0400000000006C
:101DE000C89B040000000000EC8747008E1F7800AD
:101DF0006C87570044002000041F7800000F780013
:101E00006C87570002AFBE00E1BF9F006C80570097
:101E1000970C07001E00BE004F077800CF00B100EE
:101E200000000600EC8747008E1F7800110020009C
:101E3000A1BF9F006C875700002F78006C8057006F
:101E40008D0C07001E0078004F077800CF00B1000E
:101E500000000600EC8747008E1F7800E20F50005C
:101E600034003E00E0558000E10F500003003200D6
:101E7000E20F500011003A000C003700032220004E
:101E80000300E00001003A000040DA002002E20016
:101E9000020035002822EF0021E2A8002342AB0017
:101EA0000D003A002342A8000B0037000323200056
:101EB0000300E00001003A000040DA003002E200D6
:101EC000020035003822EF0031E2A8003342AB00B7
:101ED00001003A003342A800820178000B0037006D
:101EE0003102FB00E10F500004003A002322AB0056
:101EF000FEFF3A0024118800030037003322AB00B4
:101F0000FEFF3A00A41188008301E9000300E0000D
:101F1000F3FF3A00E10F500003003A002302AB0048
:101F2000FEFF32000C0037003302AB00FEFF320030
:101F3000090037006C87570033002000031F78002A
:101F4000000F7800C1BF9F00D2BF9F006C80570078
:101F50004B0C07005FB99700020078004F0778002C
:101F6000CF00B10000000600889FBE00800478000A
:101F7000F05580000000E00005003A000000EB0092
:101F80000E0007000084EB000000E00008003500B0
:101F9000F85580000900E000050032000900440007
:101FA000060007000000E00001003D000084EB0097
:101FB000080078004F04BE00000006008000780092
:101FC0000100E00003003A0000582100F0558800AD
:101FD000000005000080EB0002582200828F5000B4
:101FE00002003E00F15588000000EB0000000600F2
:101FF000000005000001BE001B0007000470A700E0
:1020000003F0A10003F8A30013003A006509B10032
:1020100010003200090035006928E1000200350097
:1020200001002800000005000000400081804800F9
:102030008502E900FCFF3A0000000600F88F42002C
:10204000050035008100D1000080D3008502E80042
:10205000FCFF3A00000006008000EB0000000500D5
:102060006011B8007D033700C70ADE00F107B20037
:10207000F50FB20008003200E1CF4200020032004A
:102080000170A00024000500810F700001003200E3
:102090000408050044000500810F700002003A00AA
:1020A000140005008502E9000000400081C04800DE
:1020B000FCFF3B000170A000240005006022B80076
:1020C000060220000000D0008180D2000482D200ED
:1020D0008582D2000000A0000202520083825A00D2
:1020E000030031000202420083824A000000A10086
:1020F0000603E900F3FF3A0000000600EFFF0700C7
:102100000400BE000000060007F8270007836100F6
:102110000638E10004003A00F707200087836100D9
:102120008703710001003A0003F0A200889FBE00FF
:102130008A9FBE008C9FBE00470ADE000480A1007B
:10214000C71ADE000580A10007002800078560008F
:1021500087856100F70F20000720E1009E00320014
:102160000728E1009C003200010678000400E0002E
:10217000B4003200F7072000878060000170A000E3
:102180000500E000C0003200F707200087816100F1
:102190000370A000050652000F003A000B50E1004A
:1021A0000B0032000308E10002003A000200E100E7
:1021B0007E00320002045000838458000400310085
:1021C0000001FD008101FD008402FD008A05FD0083
:1021D0006044B800210037000520E10005003D0003
:1021E0000001FD008101FD008402FD008A05FD0063
:1021F000050652007A60E100050035000170A1007B
:102200004722DD00848070008A8070006300370000
:102210006044B800EF02660007FF2F000706660063
:102220000500E00006003400F08312008714DD0092
:102230000511DE00071BDD00060171008519DE00B7
:102240007060E10005003500090478008204780020
:10225000030178008001EB00700656000B50E1008E
:1022600003003A0002004000838048000400370069
:1022700060041400E0841C000200580083805800B1
:102280000188A300060032008100D1000080D30045
:102290008984D3000884D3000402E80027003700B3
:1022A0000178A30025003A000100E000030032009D
:1022B0008186CF00698656000A0037008C00200016
:1022C0000000E00004003A0009007800880478006B
:1022D0000004EB00700252008086CF000D0646001D
:1022E0000C06E9007060E10006003500800078000F
:1022F00009007800880478000004EB00700656009E
:10230000700252000C00E0000C0034008C08DD006C
:10231000F00316000703DE00868070000C00DD006D
:10232000074BDE00060070008C4CDD000743DE002A
:10233000868474000C44DD000C0252006120E10030
:1023400020003500610160000700280087816400DB
:10235000F7FF270087836400070374000300E00091
:102360000600320082037300040032000000E8001F
:10237000E08048000188A3000E003A00F70F20001B
:102380000720E1004A003D000170A1004722DD0066
:10239000810072008A8070000000BE004F06BE00FF
:1023A0004F05BE004F04BE00000006006000B800EC
:1023B000FAFF37008100D1000080D3000402E8005A
:1023C000EEFF37000401780089017400A1010700C5
:1023D0008A807000F1FF3700F701070007027800DC
:1023E0000001FD008101FD00F30107008702780074
:1023F000850372000778A300040032000001FD008D
:102400008101FD0006020700E4FF3700850362003A
:102410000768A300080032000B50E10003003200FF
:10242000F0FF2F00F1FF2700DCFF37000001FD0067
:102430008101FD00D9FF37000468A300D7FF3200F7
:10244000FAFF3700F8FF2700888360000B003A008E
:102450000000E00009003A008303640082837300F7
:10246000020032000200BE00CCFF37000B50E1003A
:10247000CEFF3A000200BE00C8FF37001400200063
:10248000810064003EFF3700F8FF27008883610069
:1024900004003A000200E00002003A008C007800DC
:1024A000BEFF3700150020008301640039FF3700AC
:1024B00001F827000000200081007500B7FF3700F9
:1024C000889FBE008A9FBE008C9FBE001B0020001C
:1024D0000202BE00058668000600280006066600A7
:1024E0004709DE00F20FB200820032000243E8002A
:1024F00080003200C729DE00F30FB2007D003200F9
:102500000343E8007B003200F107B2000170A00035
:10251000F507B2000570A000C708DD004903DE0022
:10252000868070004700DD00C72ADD004923DE00F9
:10253000868272004722DD0003055100040350002B
:10254000858358000300310000004000818048006E
:102550000A05E9008C1F78008A9FBE000400500025
:10256000858058000402420085824A000000400035
:10257000818048000005EB000004BE006033B80015
:102580000406BE000D48E1005600310011000900AC
:102590004DCCD8000C01B8000D02B8008481410078
:1025A00060824A008283530003045C0084845C00E0
:1025B00060055D000A00E00025003A008005780013
:1025C0000D40E100490031008800780007007800E4
:1025D000110009004D88D8000C01B8000D02B800A8
:1025E0008481410060824A006003110083835B00A4
:1025F00004045C00E0845C000900E00021003A0073
:102600004F01BE000300E0002B003200E301600038
:10261000070673008C8171000100320064007000B5
:102620004200DE004E5EDD000C007000C258DE008D
:1026300001E0A00083010700CF01780081807100D4
:102640004F06BE004F05BE004F04BE00000006004E
:102650008C8343000D044C00E0844C0060054D0069
:102660000000E9000A00E000D4FF32008C83430040
:102670000D044C00E0844C0060054D000000E900B2
:10268000CEFF37000C0343008D834B0060044C00E9
:10269000E0844C000000E9000900E000D8FF3200AF
:1026A0000C0343008D834B0060044C00E0844C001D
:1026B0000000E900D2FF37004200DE004E5EDD0080
:1026C0000C007000C258DE0001E0A000CF017800CD
:1026D0000300E000DAFF320060001000E080180024
:1026E000D7FF3700F0FF2F00AAFF3700F0FF2F00C1
:1026F000B9FF37000404BE002F01070087067800E9
:102700000004FD008104FD002B0107000783660023
:102710000678A300030032000960A7000800BE008D
:102720002C0037000D78A300020032000800BE0024
:10273000280037000778A30026003A0001F0A10026
:1027400009F0A1000668A30003003200F1FF270092
:10275000F0FF2F00BAFF37000D68A300030032001E
:102760000800BE008C807000B5FF37000768A3002A
:1027700007003A000648A30003003200F1FF2700DB
:10278000F0FF2F00AEFF37000D48A300030032001A
:102790006000B8008C807000A9FF37000748A300D4
:1027A0000400320001F82700000020008C80700037
:1027B000A3FF3700760107000004FD008104FD003F
:1027C00002057800720107000802BE008A01780045
:1027D00059FF37000160A00012022000B2458800B6
:1027E00097FF37000100E000120032000500E00012
:1027F00010003200889FBE008A9FBE008C9FBE00E2
:102800000006EB0001F8A300030032006000100096
:10281000E08018000CF0A00005F8A30003003200CF
:1028200060021200E0821A000CF0A2008005EB00AA
:1028300041FF37006000B800020005000383680014
:102840000700280007036300470ADE000480A10098
:10285000C71ADE000580A100F70F20000720E10065
:10286000420032000728E10040003200889FBE008D
:102870008A9FBE008C1F7800F107B200F307B200F8
:102880000400E000640032000170A0000500E000D8
:10289000680032000370A00085054200EB07B1001C
:1028A0000204B8000302B8008484440060854A0032
:1028B000020AB800848444000A854A00030AB8006A
:1028C00004054500040033000804D0008984D200C8
:1028D0000A85D2008B05E9006158E1003D00350012
:1028E00002102000090161000308200089816100B5
:1028F000F70720008783640008867300C84CDE0059
:10290000C853DD00878474004855DE000300E000F2
:102910000600320082037600040032008904E800D9
:1029200060054D000A88A3000C003A00F70F200054
:102930000758E10044003D000A70A100C75DDD00BA
:102940000A8575008A007300090078004F06780038
:102950004F05BE004F04BE00000006000A05D1006E
:102960008984D3008B05E800F0FF3700881F7800CA
:102970000604780090000700070278000001FD00BF
:102980008101FD008C00070087027800850372003A
:102990000778A300050032000001FD008101FD0061
:1029A0009F0007004F0478000000060085037200B6
:1029B0000748A30003003200F0FF2F00F1FF2700BB
:1029C000F8FF37000000200001F827008880700021
:1029D000F4FF3700880178004848DD0080817100ED
:1029E0004848DE00C850DD0001007000C850DE001D
:1029F000060478000B01780016000700888070003C
:102A0000D2FF37000500E00005003200170020006B
:102A10003A0007009DFF370081037000F9FF3A007C
:102A2000860078004F0678004F05BE004F04BE00B8
:102A30000000050083037100F9FF32002700200029
:102A40002E00070094FF370001F8270086807000F1
:102A5000F4FF37000100E0002600320061011100A0
:102A60007810E10023003C006022B8007010E10003
:102A70000400350080027800010078008000EB003F
:102A8000700151000200E0000900340070031100E1
:102A9000062ADD00822ADE008603DD0087827200BE
:102AA0000200DE00860BDD00070070008208DE00F9
:102AB00084817100F4FF2700048262008481710028
:102AC00004002800848262006102600005F0A60014
:102AD0000000060004827100070032000000E800D8
:102AE000E0804800000006000002BE006000B80060
:102AF000EFFF37006000B80000000600889FBE00AE
:102B00000004EB006138E10016003A000100E0002B
:102B100008003A00C800DE004800DD008800200000
:102B20000100E00003003A00C800DE004800DD00BC
:102B3000680444008184CF00E98454000600340016
:102B40008908DD00F08314008703DE0087807000B1
:102B50000900DD0009044400610214004F04BE00B6
:102B6000000006000300E00008003A00C811DE0083
:102B70004811DD00880020000300E00003003A0057
:102B8000C811DE004811DD00680444008384CF00D2
:102B9000E9845400060034008919DD00F083140034
:102BA0008713DE00878171000911DD0009044400EC
:102BB000E1021400E9FF37002700200001F0A70020
:102BC00017002000470BDE00F60FB20004003200B1
:102BD0000643E8000A0032004702B3000000060086
:102BE00001037800F607B2000603700002003A0005
:102BF0000703B300000006008702B30000000600D0
:102C000001037800F607B2000603700002003200EC
:102C10000770A000000006000760A000000006008A
:102C20000478A300040032000578A30003003200FA
:102C30000168A30001003A000200BE000160A0008C
:102C40000000060081017000270032008002EB00C6
:102C500001F8A3000300320060001000E0801800BB
:102C600015002000F407200002024200200034007A
:102C7000F7032000870360000604200000036300C0
:102C800002082000000161004700DE00C909DD00E4
:102C900000807100C708DE000600E0000800320076
:102CA00087037100060032001000B0000180B00000
:102CB0000188A30002003200C108DE000402E8001F
:102CC000F107B200F30F20000320E10003003D00F4
:102CD0004722DD00810072002900370001F827003B
:102CE0000000EB00260037006000B800000006007E
:102CF000680212007F20E100020034006000B8008A
:102D00001F0037006011B8007020E100040035009A
:102D100080017800010078008000EB007002520012
:102D20000400E00009003400F00312000719DD0080
:102D30008419DE000703DD00868171000400DE00D7
:102D4000070BDD00060070008408DE00F7FF270097
:102D50008383630087037100060028000303630078
:102D6000070032000700E00003003A006101600044
:102D700002817300020032001000B0000180B00038
:102D80000500A6000000060001F0A00000000600FB
:102D90004F0ADE004709DE00F107B200F20FB20071
:102DA0000B003200F207B1000170A000C708DD007F
:102DB000C901DE00838070004700DD000400A6002A
:102DC0000000060060001000E0801800000006000F
:102DD000810F700001003A00000006008182CF00E0
:102DE0000500E00010003E008082CF00EE8242002D
:102DF0007028E1000400390007003E0080007800E0
:102E00000000EB000E003700708312008600DE0029
:102E10000500DD000A003700708352008600DD00E7
:102E20000000EB0006003700E28252008508DD005A
:102E3000708312000603DE00868070000500DD004E
:102E40007507B0000501EA000400A60000000600B6
:102E500060001000E080180000000600889FBE009F
:102E60008A9FBE000082700004027100048271001B
:102E7000260032000004BE000200BE006011B8004F
:102E80006B092000950220000182CF000A00390062
:102E90000541B1000082CF00070039000541B100B3
:102EA0000982CF00040039000541B1000882CF003B
:102EB000010039000541B100054252001200320004
:102EC0000A003B0082817100610164008100D10031
:102ED0000080D3008984D3000884D3008B05E800E8
:102EE0000442E800F7FF3A000700370008044400F6
:102EF00089844C0000004800818048008B05E9006F
:102F00000442E900F9FF3A00030007004F05BE0044
:102F10004F04BE00000006008100200061805500C3
:102F20000B003D000B00200061FE2F000100E100BE
:102F30001D00340082817100610164008904D100A8
:102F40000884D3000000E800FAFF3A007100200076
:102F5000610064000300700002006000090032009C
:102F600061044400E0844C000988A500050032009B
:102F70008B05E8006808E10002003A008904D100EE
:102F80000884D300F20F20000258E10005003D0044
:102F9000C75DDD00F907B200898075000800780080
:102FA000000006000BF827008B00780000000500E9
:102FB000889FBE008A9FBE0030044200B0844A0051
:102FC00030054B0090854B006000B1000898BE00B2
:102FD0000A90BE000440E10005C8E10006D0E1000F
:102FE00007D8E10002003100680040001008E80046
:102FF0004F05BE004F04BE0000000600889FBE00C3
:103000008A9FBE003004BE002005BE000418540094
:1030100005985C0006185D0007985D00110020000F
:103020000440E10005C8E10006D0E10007D8E10056
:10303000010039008000EB00108810004F05BE0031
:103040004F04BE0000000600F4874700889FBE00C2
:103050008A9FBE008C9FBE008E1F7800D0B79F0055
:10306000E1B79F00F2B79F0083BF9F000605BE0037
:103070000404BE00CFAE97000000EB00C0B79F0075
:10308000B0B79F00A0B79F0090B79F0080B79F0088
:10309000000678004FB09700000140000000E000FB
:1030A00006003D003C0007000F07470045000700F1
:1030B0000F004000BEFF0700050037003600070084
:1030C0000F0747003F0007000F004000CBFF07003D
:1030D0004FB797000E00E0000C0035005FB297007C
:1030E000EFB297007FB397008FBB970010002000CE
:1030F000010020006011B80000027200818272009D
:1031000002037300838373001C0007000C06E800B1
:1031100001042000810F5600DEFF3A000E00E0009F
:1031200005003D000802BE000A03BE0000FE2F009D
:103130000F0040009EFF07000D00E00005003A0070
:103140000FB297009FB297002FB39700BFB39700BD
:103150000A0007005FB09700EFB097007FB19700BB
:103160008FB997004F0778004F06BE004F05BE008D
:103170004F04BE004F01B10000000600010007002F
:103180000000060094B79F00A5B79F00B6B79F0048
:10319000C7B79F00000006009FB097004F08DE00F1
:1031A00002017000A2B79F000FB097004F01DE0030
:1031B000818040008100710091B79F000EFE2F00BA
:1031C00000000600DE0078004F09DE00000040002D
:1031D0000000710080B79F006FA897004F01DE00CC
:1031E00081804000010F71000E0007004F3ADE00A1
:1031F0000000400004007000E0AF9F0009000700DD
:103200000402420085824A0006034B0087834B007C
:10321000DCFF07000802BE000A03BE0000FE2F000C
:10322000000006001FB29700AFB297003FB39700AF
:10323000CFB3970000000600881F78001800200018
:10324000881F780080FF07008F87E9004F0478000F
:1032500000000600801FEB007BFF07008F87E9005E
:1032600000000600889FBE008A9FBE00E00F50004D
:10327000E08F5800E00F5900E08F59000C003D002E
:103280006044B8006055B8000000540081805C00C4
:1032900002015D0083815D00180020001500070019
:1032A00008003D00180007000004EB00050037008F
:1032B0000004EB000F00070002003D0012000700B1
:1032C00018002000DCFF07000800E00006003200C4
:1032D0006022B8006033B8000000520081805A00BC
:1032E00002015B0083815B004F05BE004F04BE00FE
:1032F00000000600E00F5200E08F5A00E00F5B0074
:10330000E08F5B00000006006044B8006055B80024
:103310000402540085825C0006035D0087835D0023
:1033200000000600889FBE008A9FBE008C1F7800A8
:10333000E00F5000E08F5800E00F5900E08F590077
:103340000D003D006044B8006055B8000000540016
:1033500081805C0002015D0083815D001C00200013
:103360000820E10009A8E1000AB0E1000BB8E10083
:103370000D003D00080037000006EB00E00F520092
:10338000E08F5A00E00F5B00E08F5B0006003D001D
:103390006044B8006055B8000402540085825C00A7
:1033A00006035D0087835D00AAFF07000C00E000B4
:1033B000060032006022B8006033B80000005200FE
:1033C00081805A0002015B0083815B004F06780018
:1033D0004F05BE004F04BE0000000600889FBE00DF
:1033E0008A9FBE008C1F78000006EB00E00F5000A3
:1033F000E08F5800E00F5900E08F590007003D00B2
:103400006044B8006055B8000000540081805C0042
:1034100002015D0083815D001C002000E00F52006E
:10342000E08F5A00E00F5B00E08F5B0007003D007B
:103430006044B8006055B8000402540085825C0006
:1034400006035D0087835D000C00A2000C000700EE
:103450000C00E000060032006022B8006033B800C3
:103460000000520081805A0002015B0083815B00F2
:103470004F0678004F05BE004F04BE000000060056
:10348000889FBE008A9FBE008C9FBE000404B800C7
:103490000506B8008904460060854E000606B8009F
:1034A0000A054600E0854E000706B8008B05460079
:1034B000040EB800890446000A854E00E0854D00E0
:1034C000050EB8000A0546008B854E00060EB800B2
:1034D0008B0546000416B8000A0546008B854E0091
:1034E0000516B8008B054600041EB8008B05460083
:1034F0000800BE000A01BE004F06BE004F05BE0018
:103500004F04BE0000000600C55580000001EB001E
:103510000500E00032003200050178008001EB0078
:1035200003027800830078000200370082017800EF
:103530000601780012037800800F530009003A005A
:103540000281E8000300E00003003200120078006E
:10355000900198002200370012007800C0558800C2
:103560001F003700800F5300060036000100E00006
:1035700002003200910F13000200360003027800AF
:1035800082007800120390000600E000E7FF3A0096
:103590000001EB000100E000110032008101780021
:1035A0005301780011031000E40F530006003600A9
:1035B0008008780000804100800178008699E90049
:1035C0008209780000017800818F520002003A00E1
:1035D000C255880001003700120298000181E800FE
:1035E00002007800000006000000E0001800320031
:1035F0000081E900C15580000100E00012003200A6
:103600009201780003024000848F500006003A00C7
:103610001102900004087800918141000389E800BC
:10362000C255880000000600110278008482E8007C
:1036300085824000850F510003003A0084814100DB
:103640008388E8000000060001087800C255880061
:10365000000006000200FA00889FBE000000E000A3
:1036600001003A00100020000004E8000800A1005A
:10367000B05580000000E8000000A100B0558800AF
:1036800040AF29000000E00009003200E10F5400C3
:1036900001003E0028002000080078009AFF070083
:1036A000290020000000E00022003A00010037005D
:1036B0008004EB00B0558000A155800000805000D0
:1036C000800F54001100360008804400D0BF9F00D6
:1036D00066805700A9000700800078000000EB001A
:1036E0000100E000130032000100E8000000A1002A
:1036F000A1558000810F500001003200B0558800B4
:10370000DFB8970001004000A0558800B155800047
:103710000900E0000300320001007800081878007A
:1037200001003700010078000884440088804000D0
:10373000B15588004F04BE000080FA00000006006A
:103740008001780002003700B15978000201E900D9
:103750000200E000FCFF3A0000000600B14E8000CD
:10376000910078008F000700110020000000E000A9
:1037700005003500B04E800090007800A0002000C9
:10378000CC000700CF00DE000100EA0000000600C8
:1037900000000600C09D200000000600FDFF07009D
:1037A000D04E8800C04E880000000600889FBE00F2
:1037B0008A1F780080047800490090000204780095
:1037C000800F5400010036000004780008017800E2
:1037D0006A8544001A007800D9FF07001A004400E7
:1037E000000D7800E8844400990C14000048EB00B8
:1037F0004F0578004F04BE0000000600100078005E
:1038000094F93700900190000388A3000100320072
:10381000E6FF37000348A30001003A00F7FF070066
:1038200000000600889FBE008A1F78000004780010
:10383000010578000000EB000800E0001A003200EB
:10384000180090000058A3000C003200EA04440065
:1038500068009000990F100008003600B809900029
:103860000001EB00820078000800780003000100EE
:103870000080EB001900E0000B00320074004400EF
:103880000008EB006C0044000008EB006A004400F4
:103890000008EB000000EB000A00E000020032002C
:1038A000180078005FF907004F0578004F04BE004C
:1038B00000000600889FBE008A1F78000004BE003A
:1038C0000000EB000800E000290032001800900022
:1038D0000058A300120032006A05440068009000FE
:1038E0009A0F100008003600B80990000001EB00A4
:1038F0008200780008007800030001000080EB00DF
:103900001A00E0001A003200740044000008EB00C6
:103910006C0044000008EB006A0044000008EB0063
:10392000780A900008109000800F520006003100C5
:103930000002520011002000CFA2DE00612BB9006E
:103940001800780028F90700000220000800400055
:103950000008EB007E0044000008EB000000EB00D4
:103960000900E00002003200180078002DF907007D
:103970004F0578004F04BE0000000600900078005C
:103980000000EB000100E0000500350001007800B8
:1039900075F90700E10F400001003A000000EB005C
:1039A00000000600889FBE008A1F7800800478000F
:1039B00001057800090078003F0007000004780046
:1039C0008A017800080178001100200009007800C1
:1039D0000A000700800078000080EB00888F50000C
:1039E00001003A000000EB004F0578004F04BE00D4
:1039F000000006001000780016F93700889FBE000E
:103A00008A9FBE00810478000204780009C5B900CD
:103A10000900E00001003A000004EB000A01780010
:103A2000800078000300780074FF070080007800B1
:103A30008A8F500003003200110009008980D800ED
:103A400000047800080078004F05BE004F04BE0057
:103A5000000006000200FA00000178000100780072
:103A6000E2FF9F00900090000188A3000600320052
:103A7000EA01400093007800825878000280FB0041
:103A80008109780009003700120020008F80E900CA
:103A90005AFF0700800078000080EB000100E00082
:103AA00002003200EFF897000180FB000080FA006E
:103AB00000000600E7FF37008000780004003700B0
:103AC0003104E00002003A0000005100000006004E
:103AD000010178000108A300F9FF3A008101780094
:103AE00031017800F4EF2F00020242000281EA0067
:103AF000020162000408280004016100F7FF32009F
:103B000083007800010178003104E000FDFF3A00F5
:103B100000005100000006000000FA00CFB8970036
:103B200068815700B04E800010007800DF01070068
:103B30000080FA0000000600040007005C00070097
:103B40000C010700340107008E003700EC874700A6
:103B5000889FBE008A9FBE008C9FBE008E1F78008B
:103B600000067800010478001807900028059000EE
:103B700098067800CDB79F00B80590003202BE00CD
:103B80002203BE000400BE000601BE004F18DE0086
:103B90006011B8008000EB00D0B79F00E1B79F0034
:103BA000F2B79F0083BF9F00800478000900E00007
:103BB000060032006000B8006011B8000402500036
:103BC0008582580006035900878359000E00E000E3
:103BD000020035000D10A100CDB79F000900E000E4
:103BE00005003A004FB097000028A30002003A00F9
:103BF0000038A300020032008A00E900010037000B
:103C00008A007800F8815700A200200008007800A0
:103C1000860007000900E00003003A00CFB09700DB
:103C20000128A300080032000000E90000814500DF
:103C3000B1C2B3000900E00001003200D1C2B300FC
:103C400001497800050037000138A3000300320065
:103C50000000E90001C2B3008175780048019000BE
:103C60000201E90000015100808045004FB2970039
:103C70008A0178000C007800AE0107009C009000DB
:103C80000188A3000400320098009000810F5000CA
:103C900001003D00010078004F0778004F06BE008C
:103CA0004F05BE004F04BE00CF00B100000006006B
:103CB0000200FA00889FBE008A9FBE0000057800BF
:103CC000010478000200780018019000A805900017
:103CD00098007800B1BF9F00B80490000200E00097
:103CE000020035000110A100B1BF9F00EA8157001A
:103CF000820020008B0078003002BE002003BE004E
:103D000008007800490007003FB99700F000610003
:103D1000030032000000E90001C3B30081747800A1
:103D20003FB99700E8006100030032000000E9009D
:103D300001C2B30081747800480190000201E900DB
:103D400000015100808044003FBA97008B01780049
:103D50000A007800770107009A0090000188A3000C
:103D60000400320098009000810F500001003D00D7
:103D7000010078004F05BE004F04BE000080FA002D
:103D800000000600EA874700889FBE008A9FBE00A9
:103D90008E1F7800000478000300780072875700B7
:103DA00084E2260055C72600049FBE00C396220069
:103DB000030F78006C875700004FEB00110590004F
:103DC000A1049000910578000200E000020032009A
:103DD0000207780001003700728757000000E000FA
:103DE00002003A000E00780033FF07000A00E000EE
:103DF000030035008A0F5000010036000A007800E9
:103E00000B02780089017800000178008E007800AC
:103E100008007800470107004F0778004F05BE00F3
:103E20004F04BE00AF00B10000000600F487470059
:103E3000889FBE008A9FBE008C9FBE008E1F7800A8
:103E40000605BE000404BE0081BF9F0082B79F002C
:103E5000F3B79F00B0009000E1B79F001301780016
:103E600092B79F0090069000400690000C06E90073
:103E70000D00E00001003D001D002000EFB19700A3
:103E80000C8041000048EB001E0020001F0037009E
:103E90000C06E9000FB09700CF80DE006109B90081
:103EA000A0B79F00B1B79F00C2B79F00D3B79F00D4
:103EB0000203BE000002BE000800BE000A01BE00F0
:103EC000E4FC070000077800EFB097000C8040008A
:103ED00003C3B300034847008D06E9000FB89700FD
:103EE0000000E90080BF9F002FB29700BFB297008B
:103EF0004FB39700DFB397000800BE000A01BE0071
:103F0000CDFC07000205BE000004BE000C00E0006E
:103F10000D003200E00F5400E08F5C00E00F5D0008
:103F2000E08F5D00DAFF3A000D00E000D8FF3C00B2
:103F30008FB897000100E000030034001FB1970024
:103F40000218A300D2FF3A000E00E00002003A007F
:103F5000FFB197001340A1000C0078004F077800D4
:103F60004F06BE004F05BE004F04BE004F01B1001A
:103F7000000006000200FA00889FBE008A9FBE0073
:103F80008004780001047800020078001801900095
:103F90002805900098007800B1BF9F00B8059000F8
:103FA0000200E000020035000110A100B1BF9F0037
:103FB000EA815700A20020008A0078003002BE008B
:103FC0002003BE000800780098FF07004801900019
:103FD0000201E90000015100808045003FBA9700CE
:103FE0008A01780009007800D2000700990090004B
:103FF0000188A3000400320098009000810F500057
:1040000001003D00010078004F05BE004F04BE00D6
:104010000080FA0000000600FA874700889FBE0073
:104020008A9FBE008C9FBE008E1F7800800478009F
:10403000010478008205780018019000280590009E
:1040400018077800B80090000200E0000200350078
:104050000E10A10001003700120020007000670060
:10406000E0B79F00090032003B02BE002B03BE00F8
:10407000E00F5200E08F5A00E00F5B00E08F5B0022
:10408000020032008A86E900010037008A067800C3
:10409000E8026700F5B79F00010032008D06E900D5
:1040A0003B02BE002B03BE00E4AF9F00F5AF9F00B4
:1040B00086B79F0097B79F00480690000C06E9005E
:1040C0000C8040000048EB00EFB297007FB29700F1
:1040D0008903780081047800D8AF9F00020478003B
:1040E0008BBF9F008A057800034578002A003700BF
:1040F0000C06E9006FAB97006F006300E90F5000FA
:1041000002003C000003B000010037007005B00061
:104110000A03FB001604B100F90F53000C003E0027
:10412000000378000650A0001606B100F90F5300F6
:1041300007003E00B4B79F00A5B79F00C7B79F0018
:10414000E9020700CFB39700AFB297003FB29700E4
:1041500080747E000804E9008D06E9006FA89700CE
:10416000FFA897000FB197009FB19700460020006D
:104170008301D1000281D3008180D3000080D3006D
:104180000603E900FAFF3A00E0AF9F00F1AF9F009D
:1041900082B79F0093B79F00E10F56000F003600D3
:1041A0006FA89700FFA897000FB197009FB19700E5
:1041B000E00F5000E08F5800E00F5900E08F5900E9
:1041C000CBFF3A000800E000C9FF3C000D00E00012
:1041D000020034000E18A300C5FF3A0089007800E1
:1041E000F4B79F00870478005FAC97008A4178009D
:1041F0000B0578008FBD97000500E000100032002D
:104200003B02BE002B03BE00E4AF9F00F5AF9F0052
:1042100086B79F0097B79F00E00F5200E08F5A00CB
:10422000E00F5B00E08F5B00050032000C06E90048
:1042300083707E000C06E90000C3B30080707E002E
:10424000FFB297000500E000030032000C06E90011
:1042500000C2B30080707E00480190000201E900B6
:104260000C0151008C8040000E0278008A01780019
:10427000090078002F000700990090000188A30032
:104280000400320098009000810F500001003D00B2
:10429000010078004F0778004F06BE004F05BE00B2
:1042A0004F04BE00AF01B100000006000200FA009A
:1042B000881F780000047800E2BF9F0064815700E7
:1042C00008007800CE010700980090000148A30084
:1042D000010032000080EB004F0478000080FA00FB
:1042E00000000600889FBE008A1F780080047800C6
:1042F0004900900002047800800F5400010036004D
:1043000000047800080178006A8544001A007800EB
:104310000BFD07001A004400000D7800E8844400FB
:10432000990C14000048EB004F0578004F04BE00C4
:1043300000000600F2874700889FBE008A9FBE00EB
:104340008C9FBE008E1F78008004780001057800E5
:1043500002047800830578006107620002003A00D9
:104360008B0F540008003900080178008A0078009B
:104370000900780023FD07008B0F5400020039006C
:10438000880578001E003700088655000C0178006B
:10439000F00F56000100360002012000010220004B
:1043A0007E805700B60107008C06780005003700B4
:1043B00002012000FE8057000900780011FD07006F
:1043C000F0865600EF8F5600F9FF3E004461DE0094
:1043D00000FF2F000091B90002014600FE80570047
:1043E0000900780007FD07000E00E00004003A0015
:1043F000080178008A0078000900780001FD0700B4
:104400000B0078004F0778004F06BE004F05BE0036
:104410004F04BE002F01B10000000600000005009F
:104420000000050000000500000178000040EB00DE
:104430008080FB008180400063A9200063C2780077
:104440000404E00003003A0070A9200060C0780076
:104450000000060092017800934F520004003A00D9
:1044600070A9200060C078000309E800010037004F
:104470000040E800EA4F5000EDFF36000000060063
:10448000F6874700889FBE008A9FBE008C9FBE00B3
:104490008E1F78008004780001047800830578007E
:1044A000040678000000EB00C0B79F008080EB009E
:1044B000D1B79F00E0B79F00F2B79F00000820002F
:1044C00080BF9F0098007800010078000005EB0095
:1044D000010037000A05E800304178000204E000DE
:1044E0000300320053C2B300834F5100F9FF3A007A
:1044F0000A00E000040032000A0178000900780098
:10450000C0FC0700180C45001807780050C2B30023
:104510009E4F100033013A000E07E8000E0C7800A1
:1045200010003700CFB097000100A0000B0037004B
:10453000CFB097000110A00008003700CFB097005F
:104540000120A00005003700CFB097000130A00087
:1045500002003700CFB097000140A000C1B79F0014
:10456000000CE8001800780090407800B2C2B30058
:1045700082CF5000F1FF320007003C0002C2B300BE
:1045800082CF5000F0FF320032C2B30082CF500021
:1045900007003A00EFFF3700D2C2B30082CF5000CD
:1045A000E0FF320002C3B30082CF5000E0FF3200D0
:1045B000A2C2B30082CF50000D003A00000CE80008
:1045C0001C80E900000E780010007800E0B79F0022
:1045D0000000E0000F003D00CFB097000100A200F6
:1045E000C1B79F000000EA00E0B79F000900370054
:1045F00090010700E0B79F0001003700000CE800C1
:10460000180078009000FB000103B100E98F500012
:10461000FAFF36004FB097000008A30002003200F6
:104620000010A100C0B79F0018007800E1C2B300DD
:1046300090CF100016003A008000EB00D1B79F0029
:104640000000E800000C7800A1C2B30090CF100079
:1046500006003A00000CE8001C80E900000E78001B
:1046600010007800D0B79F000900370071010700E3
:10467000D0B79F0001003700000CE8001800780058
:104680009000FB000103B100E98F5000FAFF3600F3
:104690000800780064FF0700804678001800780062
:1046A0001000FB008901070091062000810F5000D7
:1046B0003800320012003C0041062000810F5000FB
:1046C000340032000A003C0011062000810F500027
:1046D0002000320031062000810F50009A00320085
:1046E00051022000810F5000AE003A00A7003700B1
:1046F00071062000810F5000AA003C0082003700A4
:1047000001072000810F50005C00320007003C00D0
:10471000E1062000810F500074003200F1062000F5
:10472000810F50009F003A003900370051072000E8
:10473000810F50002700320081072000810F5000B8
:104740004200320031072000810F500095003A00EE
:10475000850037008D80FB000C01780000FE2F00E3
:104760000F004000670107000000E0009C003200DD
:1047700018007800000CE8009041780002FE2F003D
:104780000F014100F88057000900780024FF07005E
:104790000E0037008D80FB008C0178001200200095
:1047A00000FE2F000F004000750107000000E00030
:1047B0008B003200180CE80002FE2F000F014100B0
:1047C000F880570009007800E0FC0700000545006C
:1047D000840037008D80FB008C0178000001EB0025
:1047E00000FE2F000F004000650107000000E00000
:1047F0007B003200180CE80002FE2F000F01410080
:10480000F880570009007800DAFD0700EFFF370055
:104810008D80FB008C0178000001EB0000FE2F0072
:104820000F004000560107000000E0006C0032005D
:10483000180CE80002FE2F000F014100F88057001D
:10484000090078001AFD0700E0FF37008D80FB00AB
:104850008C0178000001EB0000FE2F000F004000EB
:10486000470107000000E0005D00320018007800FA
:10487000000CE80090417800160037008C017800A9
:104880000001EB00010F200000FE2F000F00400090
:104890003B0107000000E00051003200180CE80066
:1048A0000FB097009FB097002FB19700BFB197004E
:1048B000E00F5000E08F5800E00F5900E08F5900E2
:1048C00003003A008001EB0002A9200040003700FD
:1048D00083C7B30002FE2F000F014100F88057008C
:1048E00009007800CCFD0700B8FF37000B01450038
:1048F0008D80FB008C01780000FE2F000F0040002F
:1049000078010700360037008D80FB000C0178002D
:1049100000FE2F000F004000FA0007000000E0003A
:104920002F00320018007800000CE8009041780059
:1049300002FE2F000F014100F880570009007800A7
:10494000B7FE0700A1FF370000C8B30080CF5600B4
:1049500023003A00180CE8001C80E900000E7800E3
:10496000104078000D00370000C8B30080CF56001B
:104970001B003A00180CE8001C80E900000E7800CB
:104980008001EB00100178001100370001C8B3006E
:1049900081CF560012003A00180CE800E0DF9F00BB
:1049A0000800370050C2B300E0DF9F000E0C780013
:1049B0000000EB00C0B79F00E0B79F008080EB00D5
:1049C000D1B79F0013002000E2FD2F000F0141002E
:1049D000F880570009007800EAFC07007BFF3700E9
:1049E000180CE8000A0078004F0778004F06BE0058
:1049F0004F05BE004F04BE006F01B100000006006D
:104A00008200FA00889FBE008A1F780000057800A7
:104A100082047800C13F9F000004EB0010003700C3
:104A20000902780088017800A2F72F000F014100E9
:104A300081F72F008F8040000A00780090FE070069
:104A400008004000880F500004003D00B004200022
:104A5000D05588000084EB00040037000004780083
:104A60004F3897001004E000EDFF3A00080078008E
:104A70004F0578004F04BE000080FA0000000600D9
:104A8000889FBE008A9FBE00800478000200E0007C
:104A90005A00320001407800814C78008281440045
:104AA000F1F99F00E20F5100540036009144980044
:104AB000A1449800E1F99F00D1F99F00E60F510051
:104AC0004E003600B1449800C1F99F00E80F510034
:104AD0004A0036000905EA00630565000A844400BF
:104AE0000A055100C1FF2F00010565000080FB0091
:104AF0008000EB0012102000131020005601070068
:104B0000008CBE000A01440060B99F0071B99F008B
:104B1000E80F550039003600200498003104980051
:104B2000400498005104980020B99F0031B99F00BB
:104B300040B99F0051B99F00F80F55002F00360073
:104B40006004980071049800000C9800110C980003
:104B5000200C9800310C9800400C9800510C9800E3
:104B600020B19F0031B19F0040B19F0051B19F0023
:104B700060B19F0071B19F0000B99F0011B99F0003
:104B800064016400780141000204440002055500FC
:104B90006011B8000203BE000002BE000403BE00A4
:104BA0006022B80000007200818072000201730070
:104BB000838173000F00370008027800009ABE005E
:104BC000029ABE00009ABE000292BE00000C98003D
:104BD000110C9800220C9800330C9800400C98009F
:104BE000510C9800620C9800730C98000A02B100F6
:104BF0000802B000FF0F5500EFFF3E0009007800EB
:104C00004F05BE004F04BE00000006008000780083
:104C10001000200002022000828F500004003200A9
:104C2000E9805000E48F5000010036000000EB00E6
:104C300000000600889FBE008A1F7800800478006C
:104C40000904780088047800394578000A00FB00E0
:104C5000EEFF07000000E000F9FF3A00B0C2B30029
:104C6000804F550005003200D0C2B3008000EB0039
:104C7000804F550005003A00020037008000EB002D
:104C800001003700110020000804E8000000EB00DC
:104C9000030037006A02B900020052000003B000AE
:104CA0003801FB0003FD2F0082814100E98F510094
:104CB000F8FF36000100E00001003A000000EA00C1
:104CC0004F0578004F04BE0000000600F1FB2F00E6
:104CD00080804000F98F500001003E000050A0008D
:104CE00000000600F9FF3700F1F92F008080400036
:104CF000F98F500001003E00F005B20000000600F0
:104D0000F9FF3700881F78000004780000082000B1
:104D1000808F50001700350010082000808F500051
:104D20000B00340030082000808F500011003A0042
:104D30009200780068805000000978003002BE00C0
:104D40002003BE00049CBE000694BE00070037008E
:104D50009202780064805200000978001000BE00C2
:104D60009E000700009CBE000294BE0010002000C0
:104D7000010037000000EB004F047800000006003F
:104D800084082000848F50001D0032000D003C007C
:104D900014082000848F50002700320002003C00DD
:104DA000040820000400370024082000848F5000ED
:104DB0002A00320044082000848F500048003A0046
:104DC0003B003700040A2000848F50002C00320082
:104DD00004003C0004092000848F500040003A0089
:104DE0002D003700020C2000828F50001E00320080
:104DF000020F2000828F500039003A003000370047
:104E00009380E9000200E00005003200810978008B
:104E10001102FB00CFA2DE00612BB9002D0037008C
:104E200081097800114278000482FB008002EB00C7
:104E30006033B8002700370013027800E400520006
:104E40000200E0000A003200810978001102BE0071
:104E50004FABDE00860378001E0037009302780017
:104E6000E88052000E00370093027800E480520080
:104E7000810978001102BE006033B80015003700C8
:104E80009380E9008109780011027800CFA2DE004A
:104E9000612BB9000F00370013037800E8005300BE
:104EA000810978003102BE002103BE0009003700ED
:104EB0009380E9000200E00002003200F1FF3700B9
:104EC0009380E90081097800110278008002EB00EC
:104ED0006033B8000498BE000690BE0010000500C4
:104EE0000000050044082000848F50002700320095
:104EF0000A003C0014082000848F50001C0032007F
:104F000024082000848F500026003200040820006E
:104F1000848F50002C003A001C0037000409200048
:104F2000848F50001F00320004003C0084082000E1
:104F3000848F500024003A0007003700040A200044
:104F4000848F500011003200040C2000848F500028
:104F50001D003A00060037009380E90081097800BF
:104F60009100780001087800824878001500370029
:104F70009380E900810978009100780001087800A9
:104F8000CF91DE008288BE000E0037009380E900DA
:104F90008109780091007800010878008208780083
:104FA000080037009380E9008109780091007800BB
:104FB000010878006112B900612BB9008498BE0025
:104FC0008690BE00100005000000050000000600ED
:104FD000F2F90700FDFF0700FCFF370081037800AE
:104FE00021F407000001BE006000B8000478A300AF
:104FF00013003A006220E10015003E000D00390068
:105000008301D1000281D3008180D3008301D100CC
:105010000281D3008180D3008301D1000281D300BB
:105020008180D3000538B000C42ADD00F300B2004F
:105030008381720007F0A70003F0A00000000600C3
:1050400083FF2700020020006110B900F9FF37003C
:1050500003FF2700F7FF3700020AB900001BB90061
:105060000200B800810042008100430000000600F9
:1050700000C0DA000000060000C0DA0000000600F0
:1050800000C0DA0000000600446500006C6100000A
:10509000795F00006D6F0000746F000072200000E7
:1050A00025780000200A000000440000656C000024
:1050B000617900005F610000757400006F200000DE
:1050C000257800000A0000000A4500005252000046
:1050D0004F5200003A2000004E7500006D65000040
:1050E000726F0000206400006520000073650000FE
:1050F000727600006F20000025780000206E00000E
:105100006F200000707200006F6700007261000085
:105110006D610000646F00000A000000436F000032
:105120006E6600006967000075720000696E00001D
:105130006720000041550000544F0000005300005C
:1051400065740000746900006E6700002043000071
:1051500041440000206600006F72000020490000FA
:105160004E460000524100000D000000744800004F
:1051700052450000414400002063000061640000CB
:10518000200D000000440000696600006572000008
:10519000656E000063690000612000002558000072
:1051A000200D00000A00000052650000696E00003A
:1051B000697400005F530000436F0000434100002A
:1051C0004E2000006F6E00002025000078200000B7
:1051D000425200000A00000045430000414E00001A
:1051E00020520000657300007461000072740000BA
:1051F00065640000004900004E4900005420000092
:1052000045430000414E0000206F00006E2000006A
:1052100032350000304B00006269000074730000FA
:1052200000450000434100004E5F00004850000070
:1052300000450000434100004E5F00004C5000005C
:10524000004C0000503A000020430000414E000096
:10525000206500006E2000006D6F0000646F00008C
:10526000206300006F6E0000666900006775000033
:105270007261000063690000F36E000000480000E6
:10528000503A000020430000414E0000206500001D
:105290006E2000006D6F0000646F0000206300004E
:1052A0006F6E0000666900006775000072610000A3
:1052B00063690000F36E00000000000050720000FF
:1052C0006F7900005F6400007350000049430000E4
:1052D00033330000464A000078780000785F000011
:1052E0003078000038630000303000005F55000067
:1052F000785F00004252000049440000474500002A
:105300005F490000534300005F560000305F00001B
:10531000352E0000582E0000707200006F640000EF
:1053200075630000746900006F6E00002E68000055
:1053300065780000004E00006F760000203200000B
:105340003320000032300000323200002A310000E9
:10535000343A0000323300003A31000034000000DB
:10536000434100004E2000006F6E0000005300001B
:10537000656300006F6E000064200000555300005C
:105380004152000054200000666F000072200000AF
:10539000426C000075650000746F00006F740000BF
:1053A000682000006F6E00000042000052490000BB
:1053B00044470000455F000054580000007300009F
:1053C000746100007475000073000000111100008A
:1053D00022220000333300004444000055550000F1
:1053E00066660000777700008888000099990000C1
:1053F000AAAA0000BBBB0000CCCC0000DDDD000091
:10540000EEEE0000CECD0000ACAB000002020000CA
:105410000303000004040000050500000606000068
:1054200007070000080800000A090000101000002B
:10543000101100001212000045720000726F00008F
:1054400072200000656E0000206200006974000098
:1054500072610000746500002C2000007665000079
:105460006C6F00006369000064610000642000004C
:105470006E6F000020700000657200006D69000012
:1054800074690000646100000000000049440000ED
:105490004C450000000000001600FA00881F78004C
:1054A00066044700000C7800680047000108780097
:1054B0006A004700020878006C0047000308780083
:1054C0006E00470004087800700047000508780067
:1054D000720047000608780074004700070878004B
:1054E00072004700900078006A00470010007800C2
:1054F000BF050700800078000E80E80001087800F2
:105500000E80E800100078000000E0006C0032001F
:105510000E80E8009000780064004700FC804000A6
:10552000110878000E80E800100078007C00400030
:10553000900078006A004700100078000000E90041
:1055400000004000808040000E80E80010007800DD
:105550002002B000010878006A00470010027800BD
:1055600074004700900178006E0047001001780039
:1055700068004700900078000E80E8001000780076
:10558000FB0407006C00470010017800660047002C
:10559000900078006400470010007800AC2D0700F0
:1055A000800078000E80E800100078000108780084
:1055B00070004700100078000000E0000400320096
:1055C00070004700900078000E80E8009008780096
:1055D0005D2E0700204280000000E8002042880085
:1055E000F04180000000E00008003A000E80E80072
:1055F00090007800F141880020428000E10F5000C7
:105600000F003A00370507000D00370060428000A8
:105610000000E0000A003A00F04180007A004000FB
:10562000900078006E00470010007800808F5000D6
:1056300003003E000E80E80090007800F1418800F1
:10564000A04280000000E800A04288000E80E80030
:10565000100078007A0040009000780050428000EE
:10566000808F5000050036000E80E80010007800A2
:105670007A00400010007800504288000E80E80058
:10568000100078000081E8000E80E800100078002B
:105690007A004000100078006C00B90080007800AB
:1056A000808B20000080400082007800B92C070029
:1056B00010002000000F78002D2E07000200370098
:1056C0000080EB00000F78001E007800E10F500012
:1056D0000D003A00604280000000E0000A00320045
:1056E000F04180007A004000900078006E00470092
:1056F00010007800808F500003003100620A020021
:1057000001000000000000001E0078004F04780037
:105710000080FA00000006001200FA00EC004700CA
:10572000800878006E0047000288BE000000EB0091
:10573000000F7800F80107000E80E8003242800078
:10574000434280000288BE006C00470010007800D1
:105750001001BE006E0047001000BE0002004000B5
:1057600083804800660147000089BE006C00470046
:10577000100078001001BE000E80E8001000BE008E
:10578000800F5100818F5900120036006C004700D5
:10579000100078001001BE00660047001000BE0037
:1057A000800F5100818F59001B00360066004700B2
:1057B0001001BE000E80E8001000BE00800F5100F6
:1057C000818F59001400360010002000000F78006F
:1057D000110037006C004700100078001001BE0077
:1057E000660047001000BE00800F5100818F5900F5
:1057F00007003E00660047001001BE000E80E80072
:105800001000BE00800F5100818F59000200360049
:1058100010002000000F78006C0047009000780016
:1058200066004700B0187800A01078001E007800CD
:105830000000E00006003200F04180000080E80037
:10584000CB2C0700660047001000BE00C404070010
:10585000B7010700800078006A004700010878005F
:105860006A004700100078000000E00003003A00E2
:10587000620A020001000000000000000080FA003F
:10588000000006000A00FA00660147000089BE0019
:105890000000EB00000F7800660047001000BE001B
:1058A000E00F5000E08F5800110032009A0107000D
:1058B0003242800043428000660047001000BE0074
:1058C00002004000838048000E81E8000089BE008D
:1058D000F04180000080E800A52C07000E80E80061
:1058E0001000BE009E04070091010700000F780021
:1058F0001E0078000000E00003003A00620A020087
:1059000001000000000000000080FA000000060016
:105910000C00FA0068014700000978006A0047009F
:10592000010878000000EB00000F78006A004700D3
:1059300010007800E30F5000030036003100200013
:105940006A004700010878007F2D070068004700C3
:10595000100078000000E00002003A00F0418000F2
:105960000200370068004700100078008E80E800D1
:10597000800878000E80E8009000780064004700FE
:10598000FA80400011087800640047009000780019
:105990006A00470010007800808F500067003200D6
:1059A0006A0047009000780064004700100078000B
:1059B000808F50000F003600F14180000E80E8001B
:1059C00010007800810F500011003200F04180007B
:1059D0007A004000900078006A00470010007800CC
:1059E000808F50000A003E0010002000000F780059
:1059F00007003700F14180000E80E80010007800B9
:105A0000810F500002003A0010002000000F7800C3
:105A10000E80E8009000780066004700FA804000A1
:105A2000110878000E80E800100078007A0040002D
:105A3000EA004700110878000E80E80010007800A6
:105A40006E0040001000BE00E00F5000E08F5800D4
:105A50000B0035006A004700100078008000EB0062
:105A60004200200003002000000051008180590006
:105A70000E81E800120178006E0141000089BE002D
:105A80000E80E800100078006C00400010017800E3
:105A900066004700100078006C00B90080007800B4
:105AA000808B200000804000800F51001D003A00D4
:105AB0000E80E800100078000080E8002C2C070021
:105AC0000E80E800100078007A0040009000780016
:105AD00050428000808F5000050036000E80E800A4
:105AE000100078007A0040001000780050428800D2
:105AF0000E80E800100078000081E8000E80E800C9
:105B0000100078007A004000100078006C00B900A6
:105B100080007800808B20000080400082007800A8
:105B20009C2B07001E007800E10F500003003A0094
:105B3000620A020001000000000000000C2D0700B6
:105B40000080FA00000006000400FA008E80E800E1
:105B500080087800FC2C07000E80E8001000780018
:105B60000000E00002003A00F0418000020037002F
:105B70000E80E80010007800000F78001E80E8001A
:105B8000FB2B07001E007800780040001000780012
:105B90000000E000030032009E0078006E804000AC
:105BA000F32B07001E80E80080007800C0902000E2
:105BB000782B0700EE2C0700F04180009E00780053
:105BC000808F50000F003A00604280000000E0002B
:105BD00004003200620A0200010000000000000020
:105BE0000E0037006148800020428000808F500006
:105BF00002003A003E28EF0008003700D8010700F5
:105C000006003700604280000000E0000300320020
:105C1000CD2C07001B040700D52C07000080FA00DC
:105C2000000006000600FA00E40047008008780043
:105C30000000EB00000F78000E80E800E400470051
:105C4000110878000E80E800100078006C00400019
:105C500090007800C0902000808F50000F003A0024
:105C60000E80E80010007800780040009000780076
:105C700000902000808F5000080032000E80E80065
:105C80001000780078004000100078000000E0006C
:105C900002003A0010002000000F78001E0078007B
:105CA0000080FA00000006000400FA008E80E80080
:105CB000800878000E80E800100F78001E00780041
:105CC0000000E0002B003200F04180009E007800D0
:105CD000808F5000270032009B2C07001E007800A8
:105CE000D0FF0700E10F500021003A001E80E800BD
:105CF0009F2B07001E0078007A004000900078007B
:105D000050428000808F5000040036001E00780052
:105D10007A00400010007800504288001E81E800A0
:105D20001E0078007A004000100078006C00B90076
:105D300080007800808B2000008040008200780086
:105D4000142B07001E0078007A00400090007800B5
:105D5000F04180007A00400010007800808F5000F1
:105D600003003900620A0200010000000000000088
:105D70007F2C07000080FA00000006000800FA00EF
:105D8000E6004700800878000000EB00000F780074
:105D90000E80E800E6004700110878008000EB0064
:105DA00064004700010878000E80E80010007800C9
:105DB0009CFF0700E10F500032003A00B042800023
:105DC0000000E00029003A000E80E8001000780092
:105DD0007A00400090007800F04180007A00400096
:105DE00010007800808F5000020039001000200061
:105DF000000F78000E80E800100078000080E800B6
:105E00005B2B07000E80E800100078007A0040004D
:105E10009000780050428000808F500005003600CE
:105E20000E80E800100078007A0040001000780032
:105E3000504288000E80E800100078000081E800E1
:105E40000E80E800100078007A0040001000780012
:105E50006C00B90080007800808B2000008040003A
:105E600082007800CB2A0700060037000E80E80089
:105E7000100078006E004000800078000090200044
:105E8000C42A07001E0078000080FA000000060007
:105E90000200FA008003EB000003EB008002EB003D
:105EA0000002EB008001EB009206200061A42A00B2
:105EB000204A2B0078FD0700000F78001E007800B4
:105EC000E10F500009003A00100280000050A000CD
:105ED00010028800000000001000200060428800CE
:105EE0004628EF004828EF00DE2B07000080FA006C
:105EF000000006000000FA00100280000050A00020
:105F000010028800000000004C28EF00F72B07006B
:105F10000080FA00000006000000FA00B042800095
:105F20000000E800B04288000080FA00000006008F
:105F30000400FA000000EB00000F7800022C0700BC
:105F4000B04280000000E900B0428800B04280000A
:105F50000000E0004F003A00204280000000E00016
:105F60004C0032003100370040488000680040009B
:105F7000900078000E80E800010878000E80E800AC
:105F8000100078006E004000F92A07000E80E8003B
:105F9000100078000080E800F52A07000E80E80075
:105FA000100078007A004000900078005042800095
:105FB000808F5000050036000E80E8001000780049
:105FC0007A00400010007800504288000E80E800FF
:105FD000100078000081E8000E80E80010007800D2
:105FE0007A004000100078006C00B9008000780052
:105FF000808B20000080400082007800652A070026
:106000000E80E800100078007A00400090007800D0
:10601000F04180007A00400010007800808F50002E
:1060200002003900100020008042880000488000F3
:106030000000E000CCFF3A00704280000000E00069
:106040000C003200080037002E0007000000E000BE
:106050000200320010002000804288007042800060
:106060000000E90070428800704280000000E000FB
:10607000F5FF3A0080428000E10F500005003A0031
:1060800010002000000F7800620A020001000000EA
:1060900000000000B62B07001E0078000080FA0008
:1060A000000006000400FA00A72B0700324280001F
:1060B00043428000028FBE00AD2B07001E00BE00D1
:1060C0000080FA00000006000600FA000000EB0065
:1060D000000F78000E80E8003242800043428000CA
:1060E0000288BE000E80E8001000BE000080FA00AA
:1060F000000006000000FA00204280000080FA0044
:10610000000006000E00FA000000EB00000F78000F
:10611000B04280000000E00086003A00304280007B
:106120004142800061004000E08048003042880029
:10613000414288000E80E8003242800043428000E5
:106140000288BE000E80E8001000BE00E00F500084
:10615000E08F58000C003A006600470003428000C0
:106160000308780010428000004288006600470063
:106170009000780011428800904280000000E80002
:1061800090428800BF020700104580002145800032
:106190000E81E8001201BE00800F5100818F59006E
:1061A0005700390001003700000000000042800065
:1061B000100078000000E00005003A000080EB00CD
:1061C0008080EB0010458800214588004C00370096
:1061D0000042800068004000100078006800400025
:1061E00090007800680047000108780068004700C8
:1061F000900078006A0047008180E800311878003C
:10620000211078000E80E8001001BE006A004700EF
:106210001000BE00800F5100818F59000500310031
:106220006A0047001001BE0012458800234588001F
:106230003300370068004700100078000080E80055
:106240004B2A0700680047001000780078004000E3
:10625000100078000000E0000400320068004700F1
:10626000100078006E004000412A070068004700D7
:10627000100078007A0040009000780050428000C2
:10628000808F50000500360068004700100078003D
:106290007A004000100078005042880068004700F3
:1062A000100078000081E8006800470010007800C6
:1062B0007A004000100078006C00B900800078007F
:1062C000808B20000080400082007800B129070008
:1062D00068004700100078007A00400090007800C5
:1062E000F04180007A00400010007800808F50005C
:1062F000ADFF390010002000000F7800ABFF370021
:10630000F04180007A004000100078006C00B90075
:1063100080007800808B2000008040001000780012
:10632000E10F50000600360010002000000F78003A
:1063300003003700704280000000E80070428800CF
:10634000804280000000E0000200320010002000C7
:10635000000F78001E0078000080FA0000000600A0
:106360000200FA00B04280000000E00003003200AA
:1063700010002000804288002F0037005028EF00D6
:1063800003003700504280000000E90050428800BE
:10639000504280006C00B90080007800808B2000A3
:1063A00000804000100078000000E000F5FF32009F
:1063B000504280006C00B90080007800808B200083
:1063C000008F40001E0078000080E8001000780078
:1063D00064004000900078001E0078000080E80013
:1063E000010878001E0078000080E8009000780026
:1063F0001E01780064004100808F500008003A00C0
:106400001E0078000080E800100078006400400062
:10641000900078001E0078000080E80001087800F5
:106420001E0078000080E80010007800680040003E
:1064300010007800F04188000080FA00000006009B
:106440000A00FA00E4004700800878006600470070
:106450000288BE00F04180006E004000800078009D
:10646000640047001000780076290700F0418000A2
:106470000080E800BE290700660047001001BE004A
:106480000080EB008080EB00800F5100818F59006D
:1064900006003A00F04180000080E80080007800AB
:1064A000C09020003B2907000800370032428000DE
:1064B00043428000660047001000BE00001F4100FC
:1064C000019749001E00BE00A50107000080FA00E8
:1064D000000006000E00FA00E40047008008780083
:1064E000660047000288BE006A0047000488BE00BC
:1064F000F2418000660047001000BE0001F0A000DD
:106500006E0141000089BE00F04180006E00400035
:106510008000780064004700100078001D29070003
:10652000F04180000080E800912907006A004700E0
:106530001001BE000080EB008080EB00800F510056
:10654000818F590006003A00F04180000080E80089
:1065500080007800C09020000E2907000800370056
:1065600032428000434280006A0047001000BE00B3
:10657000001F4100019749001E00BE00780107007E
:106580000080FA00000006000600FA00E400470060
:106590008008780064004700100078006800400020
:1065A0001000780068004000900078000E80E8003D
:1065B000010878000E80E800100078006E004000AE
:1065C0006B290700B04280000000E0001E003A0086
:1065D0000E80E800100078000080E80064290700C1
:1065E0000E80E800100078007A00400090007800EB
:1065F00050428000808F5000050036000E80E80079
:10660000100078007A0040001000780050428800A6
:106610000E80E800100078000081E8000E80E8009D
:10662000100078007A004000100078006C00B9007B
:1066300080007800808B200000804000820078007D
:10664000D4280700060037000E80E800100078000C
:106650006E0040008000780000902000CD280700E8
:106660000E80E800100078007A004000900078006A
:10667000F04180007A00400010007800808F5000C8
:106680000500360010002000000F780010002000E8
:1066900080428800020037000000EB00000F780005
:1066A0001E0078000080FA00000006000A00FA00D0
:1066B000E400470080087800660047000288BE00BA
:1066C000660047001000BE0001F0A0006401470012
:1066D000120178000089BE006400470010007800B5
:1066E00068004000900078000E80E8000108780003
:1066F00064004700100078001D2907000E80E800A4
:10670000100078000080E800192907000E80E800DA
:10671000100078007A00400090007800504280001D
:10672000808F5000050036000E80E80010007800D1
:106730007A00400010007800504288000E80E80087
:10674000100078000081E8000E80E800100078005A
:106750007A004000100078006C00B90080007800DA
:10676000808B20000080400082007800892807008C
:106770000E80E800100078007A0040009000780059
:10678000F04180007A00400010007800808F5000B7
:106790000500360010002000000F780010002000D7
:1067A00080428800020037000000EB00000F7800F4
:1067B0001E0078000080FA00000006000200FA00C7
:1067C000000F7800914280001E00780001087800D8
:1067D00030428000414280001E0178000281E800C2
:1067E0000089BE000080FA00000006000A00FA00DE
:1067F000660147000009780068004700010878003A
:10680000D12907000E80E800324280004342800018
:106810000288BE0068004700100078001001BE002A
:106820000080EB008080EB00800F5100818F5900C9
:1068300003003A000000EB00000F7800380037003A
:1068400066004700100078009000780090428000B9
:10685000808F50000C003200660047001000780066
:106860000080E8001001BE000E80E8001000BE00AD
:10687000800F5100818F590003003E00100020005E
:10688000000F7800260037006600470010007800EF
:106890000080E8001000BE000E81E8001201BE007A
:1068A0000001510081815900680047001000780004
:1068B0001000BE00800F5100818F5900160031007A
:1068C00068004700100078001001BE006600470015
:1068D000100078000080E8001002BE000E80E80082
:1068E0001000BE000000520081805A0002004000EB
:1068F0008380480068014700120178000089BE00CB
:106900006600470010007800ACFF07000000EB00B5
:10691000000F78000200370010002000000F780000
:10692000932907001E0078000080FA00000006008E
:106930000000FA0010002000804288000080FA0069
:10694000000006000200FA00000F78008100070036
:10695000C0458000E10F500003003600620A0200CB
:106960000100000000000000E6260700F7FF3700E6
:106970000C00FA008E82E800800A7800640047006C
:1069800001087800660047000208780068004700A8
:10699000030878006A004700040878000000EB0054
:1069A000000F7800100037006400470010007800E6
:1069B0001E004000904078000E80E8001000780033
:1069C0001E0040007E00400001487800640047003F
:1069D000100078001E004000104078000004E00025
:1069E000050032001E0FE8001E007800E30F500083
:1069F000EDFF360001003700000000000E80E800C7
:106A0000100078008040EB001002B00001487800D0
:106A10006600470010007800E30F500003003600C6
:106A20003100200066004700010878000E80E80071
:106A3000100078007A004000E60047001108780056
:106A40000E80E800100078000080E800C9270700E9
:106A50000E80E800100078006E004000C527070097
:106A60000E80E800100078006A0040008E80E80088
:106A70001108780066004700100078008000EB00E5
:106A800042002000030020000000510081805900D6
:106A90000E81E800120178006E0141000089BE00FD
:106AA0000E80E80010007800760040008E80E8003C
:106AB000110878000E80E800100178006000B8002E
:106AC0004202B0000089BE000E80E800100078008D
:106AD0008000EB008002B000010878000080FA001E
:106AE000000006000200FA000000EB00000F780032
:106AF000070037001E0078006C00B90080007800A5
:106B0000808B2000008040007C2707001E0FE800DB
:106B10001E007800E30F5000F6FF3600808E200044
:106B200076270700408F2000742707000090200080
:106B300072270700C090200070270700808E200079
:106B400000428800408F2000104288000080FA0038
:106B5000000006000000FA000080FA0000000600B5
:106B60000400FA00008FBE00F04180000080E800C1
:106B70003E1878002E10780030428000414280009C
:106B80001E01BE00800F5100818F590007003100A7
:106B9000F04180000080E800124280008000780010
:106BA00002007800A72707000F003700F04180009F
:106BB0000080E80002428000800078000200780037
:106BC000A027070010458000214580001E01BE005F
:106BD000800F5100818F5900030031001E01BE005B
:106BE00012458800234588000080FA000000060056
:106BF0000600FA000E81E8000009780064004700F2
:106C000001087800A0022000B32A0700000F7800D6
:106C10001E0078000000E00017003200640047000A
:106C2000100078000000E00005003A000E80E80047
:106C30001000780000004000A72A0700020037007B
:106C400064004700100078009E007800FC8040003F
:106C5000800878001E0078007C004000100078005A
:106C60000000E00004003A001E007800A62A070099
:106C70000000EB00000F78001E0078000080FA0092
:106C8000000006000200FA000042800010007800B8
:106C90000000E00005003A000080EB008080EB007F
:106CA00010458800214588000B0037000042800015
:106CB0006800400010007800680040001000780074
:106CC000000F78001E0078000080E8001000BE0071
:106CD00010458800214588000080FA000000060069
:106CE0000400FA00F04180006E004000301F780080
:106CF00020177800F4418000F04180007A004000C5
:106D0000100078008000EB0042002000030020000B
:106D100000005100818059006E0142000089BE00D0
:106D20001E00BE000080FA00000006000E00FA00FF
:106D3000E8004700800878006A0047000288BE002B
:106D400081280700F04180004002B0001000BE0022
:106D5000E00F5000E08F580024003A00F04180001E
:106D6000110020008002B000010878006A0047008E
:106D70001000BE00E00F5000E08F58001B003200F2
:106D8000F04180000080E800792707006A00470092
:106D90001001BE000080EB008080EB00800F5100EE
:106DA000818F590006003A00F04180000080E80021
:106DB00080007800C0902000F62607000800370009
:106DC00032428000434280006A0047001000BE004B
:106DD000001F4100019749001E00BE0060FF070030
:106DE000620A0200010000000000000060280700A5
:106DF00055280700F1418000640047004102B000BF
:106E00003118780021107800640047001000BE009F
:106E1000E00F5000E08F580011003200680047007A
:106E2000100078000000E00005003200F241800010
:106E30006000B8004202B0000089BE0008003700C0
:106E4000F241800040022000020040001000BE001D
:106E500061005000E08058004202B0000089BE008E
:106E6000F04180008000EB008002B0000108780053
:106E70003F280700640047001000BE000080FA00B1
:106E8000000006001400FA00889FBE008A9FBE0022
:106E9000E6024700808ABE006A0047000288BE0002
:106EA0006E00470004087800700047000688BE00A6
:106EB00025280700F04180008002B0001000780013
:106EC000E20F50003B003200F441800040022000FD
:106ED000040040001001BE00660047001000BE0024
:106EE0000080EA008180EA008202780003017800D5
:106EF00080017800810078000380620081006100D9
:106F000081057800000578000A00BE0042022000DA
:106F1000040141000089BE00F04180001100200002
:106F20008002B00001087800700047001000BE0029
:106F3000E00F5000E08F58001E003200F04180004A
:106F40000080E8000A270700700047001001BE001B
:106F50000080EB008080EB00800F5100818F590092
:106F600006003A00F04180000080E80080007800D0
:106F7000C0902000872607000B00370032428000B7
:106F800043428000700047001000BE000200400035
:106F9000838048000E81E8000089BE000E80E80072
:106FA0001000BE00EEFE0700620A020001000000B1
:106FB00000000000EE270700E32707006E004700EF
:106FC000100078000000E00006003200F041800070
:106FD0004002B0001000BE006E01470012017800B0
:106FE0000089BE00F04180008002B00010007800EF
:106FF000E10F500003003A000000EB00000F7800A2
:1070000016003700F44180004002200004004000D8
:107010001001BE006A0047001000BE000080EA00B8
:107020008180EA0082027800030178008001780004
:107030008100780003806200810061008104780093
:10704000000478000800BE00420220000401410054
:107050000089BE0010002000000F7800F041800081
:107060008000EB008002B00001087800C027070014
:107070001E0078004F05BE004F04BE000080FA00DD
:10708000000006001000FA00E6024700800A7800BF
:10709000680047000288BE006C00470001087800C5
:1070A0006E0047000408780010002000000F7800F0
:1070B0000E80E800E600470011087800A2270700CC
:1070C0006E004700100078000000E000070032006A
:1070D0000E80E800100078004002B0001000BE00F2
:1070E0006E014700120178000089BE000E80E800A2
:1070F00090007800640047008102B0001108780019
:107100000E80E80010007800210020008002B0000E
:10711000010878006C00470010007800E20F500072
:1071200019003200E20F500005003E000000E000B0
:1071300035003200E10F5000060032003300370006
:10714000E30F50001B003200E40F5000200032001B
:107150002E0037000E80E800100078004002B000DA
:107160001001BE00680047001000BE000000710062
:10717000818071000E81E800120178004202B000A7
:107180000089BE00210037000E80E8001000780062
:107190004002B0001000BE0061004000E0804800E6
:1071A0000E81E800120178004202B0000089BE00A2
:1071B000160037000E80E800100078004002B00092
:1071C000E800470031187800211078000F003700E0
:1071D0006400470010007800E20F50000700320002
:1071E0000E80E800100078004002B000E800470080
:1071F0003118780021107800040037000000EB00FF
:10720000000F780001003700000000006400470014
:1072100010007800E10F500029003A000E80E800CD
:10722000100078000080E800512607000E80E8007A
:10723000100078007A0040009000780050428000F2
:10724000808F5000050036000E80E80010007800A6
:107250007A00400010007800504288000E80E8005C
:10726000100078000081E8000E80E800100078002F
:107270007A004000100078006C00B90080007800AF
:10728000808B20000080400082007800C12507002C
:107290000E80E800100078007A004000900078002E
:1072A000F04180007A00400010007800808F50008C
:1072B00003003600620A0200010000000000000026
:1072C0002B2707001E0078000080FA00000006004F
:1072D0001200FA00E8024700800A78006A004700BE
